:100000000C9492000C941D030C9441030C94AF00CB
:100010000C94AF000C94AF000C94AF000C94AF00A4
:100020000C94AF000C94AF000C94AF000C948503BB
:100030000C94AF000C94E2070C940E080C94AF00E3
:100040000C945B030C94AF000C94AF000C94AF00C5
:100050000C94AF0005A84CCDB2D44EB93836A902E5
:100060000C50B9918688083CA6AAAA2ABE000000B6
:10007000803F2F554E4954000A0D546172726966D3
:100080003A20000A0D42494C4C20414D4F554E54E8
:100090003A20000A0D504F57455220464143544FD5
:1000A000523A20000A0D4652455155454E43593AA1
:1000B00020000A0D43555252454E543A20000A0D75
:1000C000564F4C544147453A20000A0D554E49546D
:1000D000533A20000A0D504F5745523A20004275BE
:1000E00066666572206F766572666C6F77206572E2
:1000F000726F723A0A0D200055415254204F7665B6
:100100007272756E204572726F723A0A0D20005538
:10011000415254204672616D65204572726F723A89
:100120000A0D200011241FBECFE5D8E0DEBFCDBFF1
:1001300011E0A0E6B0E0E4EFFCE102C005900D9212
:10014000AA36B107D9F721E0AAE6B1E001C01D92B5
:10015000AB3DB207E1F70E9491080C94780E0C9425
:10016000000017BA80EF88BB089588E087BB80E560
:100170008A95F1F7B79903C017BA81E00895B69947
:1001800003C017BA84E00895B59903C017BA87E091
:100190000895B49903C017BA8EE0089584E087BB30
:1001A00080E58A95F1F7B79903C017BA82E0089500
:1001B000B69903C017BA85E00895B59903C017BA78
:1001C00088E00895B49903C017BA80E0089582E0EA
:1001D00087BB80E58A95F1F7B79903C017BA83E02A
:1001E0000895B69903C017BA86E00895B59903C07B
:1001F00017BA89E00895B49903C017BA8FE008953B
:1002000081E087BB80E58A95F1F7B79903C017BAFB
:100210008AE00895B69903C017BA8BE00895B5999E
:1002200003C017BA8CE00895B49903C017BA8DE0E3
:10023000089517BA8FEF08958031E8F4E82FF0E0C1
:10024000EC5DFE4F0C94930B650134015601670180
:100250003E0161016901460163016B016F0171019A
:10026000730175014E016D0188E087BB80E58A95B9
:10027000F1F7B79B22C090E080E0089588E087BB4B
:1002800080E58A95F1F7B699F6CF17C088E087BB6D
:1002900080E58A95F1F7B599EECF0FC088E087BB6E
:1002A00080E58A95F1F7B49B08C0E5CF84E087BB71
:1002B00080E58A95F1F7B799DECF17BA81E090E033
:1002C000089584E0DCCF84E0E2CF84E0E8CF82E0F0
:1002D000EECF82E0D4CF82E0DACF82E0E0CF81E0DF
:1002E000E6CF81E0CCCF81E0D2CF81E0D8CFCF93F1
:1002F000C82F8C2F0E941C01892BD9F3CF91089510
:100300000E94B500982F80916400891325C08F3F0B
:1003100011F48FEF08952091600030916100232B3C
:10032000A1F420916200309163002F5F3F4F309322
:10033000630020936200243631055CF321E030E055
:100340003093610020936000089584E690E09093DC
:10035000630080936200DDCF2091600030916100E6
:10036000232BA9F0209162003091630021503109C4
:1003700030936300209362001216130654F2109219
:100380006100109260009093640081E108951092E2
:1003900063001092620090936400BBCF803130F410
:1003A000E82FF0E0E559FF4F8081089584E2089539
:1003B000AD9A82E08A95F1F700C0AD980895CF9389
:1003C000C82F662341F1AF9AAE98A49AA39AA29A35
:1003D000A19AA998AA98AB98AC98C7FDA99AC6FD0E
:1003E000AA9AC5FDAB9AC4FDAC9A0E94D801A998FF
:1003F000AA98AB98AC98C3FDA99AC2FDAA9AC1FD70
:10040000AB9AC0FDAC9A0E94D801AC9AAB9AAA9A5A
:10041000A99ACF910895AF98D7CFAF98AE9AA498E4
:10042000A398A298A198AD9A82E08A95F1F700C0AE
:100430009C9B1BC080E19B9980629A9980649999EA
:100440008068AD9892E09A95F1F700C0AD9A92E07D
:100450009A95F1F700C09C9981609B9982609A9966
:10046000846099998860AD98089580E0E4CF0E94F7
:100470000D0287FDFCCF8AE08A95F1F700C00C944D
:100480000D02CF93C82F0E94370260E08C2FCF91CE
:100490000C94DF01CF93C82F0E94370261E08C2FAC
:1004A000CF910C94DF01611103C080580C9441027C
:1004B0008054FCCF0E94370290E0089581E00C94B4
:1004C000410282E00C944102CF93C82F0E94370270
:1004D000CA3049F4803428F080E08058CF910C94E1
:1004E000410280E4FACF61E08C2FCF910C94DF01C0
:1004F000CF93DF93EC018991811103C0DF91CF91FC
:1005000008950E946402F7CFCF93DF93EC01FE01C0
:1005100084912196811103C0DF91CF9108950E94AB
:100520006402F5CFCF93C82FA79AA69AA59AA49A4A
:10053000A39AA29AA19A8FEF9CE70197F1F700C0C6
:100540000000AB9AAC9A0E94D8018FE097E2019725
:10055000F1F700C000000E94D8019AEA9A95F1F7DD
:1005600000C00E94D8018AEA8A95F1F700C0AC98D1
:100570000E94D8019AEA9A95F1F700C088E20E9499
:10058000410288E00E9441020E945E0286E00E94D1
:1005900041028C2FCF910C944102CF92DF92EF92C7
:1005A000FF92CF93DF93EA016B017C01E894F7F8A7
:1005B000C701B6010E94960C362F272FEAE0F0E023
:1005C0001C161D0664F180E090E0CD3F2FEFD207AE
:1005D00068F1072E000C880B990B0E94CE0C9B0132
:1005E000AC01C701B6010E94AD0B20E030E04AE744
:1005F00054E40E94C20D0E94960C462F972F2AE0C9
:1006000030E0842FB9010E947F0B2197CC3F4FEF40
:10061000D40761F0462F972FF4CF362F272F832F43
:10062000922FBF010E947F0B2197B9F7DF91CF91E5
:10063000FF90EF90DF90CF9008951F920F920FB62A
:100640000F9211248F939F9380916A0190916B0177
:10065000892B21F41092D6011092D50110926B01D2
:1006600010926A018CB59DB59093710180937001D1
:100670001DBC1CBC9F918F910F900FBE0F901F90BF
:1006800018951F920F920FB60F9211248F939F937C
:1006900081E090E090936B0180936A018CB59DB5E9
:1006A0009093D6018093D5019F918F910F900FBEAB
:1006B0000F901F9018951F920F920FB60F92112452
:1006C0008F939F9380917E0190917F01892B99F068
:1006D00084B195B19093890180938801389A1092E2
:1006E0007F0110927E01369A9F918F910F900FBEDD
:1006F0000F901F90189584B195B1909385018093C8
:10070000840187B1807E87B9EFCF78941F920F92D2
:100710000FB60F9211244F925F926F927F928F9239
:100720009F92AF92BF92CF92DF92EF92FF922F9360
:100730003F934F935F936F937F938F939F93AF9369
:10074000BF93EF93FF9380918E0190918F0101965B
:100750008F3191050CF590938F0180938E01FF915D
:10076000EF91BF91AF919F918F917F916F915F9129
:100770004F913F912F91FF90EF90DF90CF90BF90DE
:10078000AF909F908F907F906F905F904F900F9061
:100790000FBE0F901F90189510928F0110928E012E
:1007A00080918C0190918D0101968C3391050CF014
:1007B000D1C090938D0180938C0181E090E0909363
:1007C0007F0180937E01369A609170017091710172
:1007D000072E000C880B990B0E94CE0C4B015C017C
:1007E000AC019B0160E074E284E799E40E94240C70
:1007F0006093D7017093D8018093D9019093DA0167
:100800006091880170918901072E000C880B990B6B
:100810000E94CE0C2BE33FED4FE85EE30E94C20D39
:100820000E94960C6B017093870160938601609122
:10083000840170918501072E000C880B990B0E9492
:10084000CE0C23EA30E44FE15BE30E94C20D2B01A2
:100850003C0140928001509281016092820170922D
:1008600083016091D5017091D601072E000C880B91
:10087000990B0E94CE0CA50194010E94240C21E941
:100880003FE049EC50E40E94C20D0E941F0C4B0156
:100890005C0180926C0190926D01A0926E01B09209
:1008A0006F01B601DD0C880B990B0E94CE0CA301E1
:1008B00092010E94C20DA50194010E94C20D609395
:1008C0007A0170937B0180937C0190937D0120E0FD
:1008D0003AEB4BE55AE40E94240C209176013091CA
:1008E000770140917801509179010E94AE0B60939D
:1008F000760170937701809378019093790120E0DD
:1009000030E040E550E40E94C20D609372017093A4
:100910007301809374019093750180918C01909183
:100920008D016CE070E00E947F0B8C30910508F027
:10093000A6C0FC01E256FB4F0C94930BB804B8041C
:10094000B804A705A705A7054406440644061107F1
:100950001107110710928D0110928C0180918A016C
:1009600090918B01019690938B0180938A0125CF02
:100970000E945E028BE790E00E94780260918601FF
:1009800070918701072E000C880B990B0E94CE0CEA
:1009900043E050E00E94CD020E94CE010E9464021A
:1009A0006091860170918701072E000C880B990BCE
:1009B0000E94CE0C42E050E00E94CD020E94CE0187
:1009C0000E9464026091860170918701072E000CDD
:1009D000880B990B0E94CE0C41E050E00E94CD02A2
:1009E0000E94CE010E94640261E080E00E945302F6
:1009F00085E890E00E947802609180017091810109
:100A0000809182019091830141E050E00E94CD02EB
:100A10000E94CE010E9464028EE20E9464026091F4
:100A200080017091810180918201909183014FEF4B
:100A30005FEF0E94CD020E94CE010E94640260918D
:100A400080017091810180918201909183014EEF2C
:100A50005FEF0E94CD020E94CE010E94640260916D
:100A600080017091810180918201909183014DEF0D
:100A70005FEF0E94CD020E94CE010E946402C090EE
:100A80006C01D0906D01E0906E01F0906F01E894E0
:100A9000F7F823E333E343E35FE3C701B6010E94C2
:100AA0001A0C87FF5BC28091690090916A00892BC4
:100AB00009F454C280EC90E00E94770810926A001A
:100AC00010926900C0908001D0908101E090820175
:100AD000F090830123E333E343E35FE3C701B6010F
:100AE0000E94BD0D18160CF04BC2809167009091CA
:100AF0006800892B09F444C28FED90E00E947708CA
:100B00001092680010926700C0907601D090770133
:100B1000E0907801F090790126EA3BE944E45BE358
:100B2000C701B6010E94BD0D18160CF03AC28091A3
:100B3000650090916600892B09F433C289E091E049
:100B40000E947708109266001092650008CE0E94FD
:100B50005E028FE890E00E94780260916C017091D3
:100B60006D0180916E0190916F0141E050E00E9413
:100B7000CD020E94CE010E9464028EE20E946402B5
:100B800060916C0170916D0180916E0190916F0187
:100B90004FEF5FEF0E94CD020E94CE010E946402DF
:100BA00060916C0170916D0180916E0190916F0167
:100BB0004EEF5FEF0E94CD020E94CE010E946402C0
:100BC00060916C0170916D0180916E0190916F0147
:100BD0004DEF5FEF0E94CD020E94CE010E946402A1
:100BE00061E080E00E94530284E990E00E94780274
:100BF0006091D7017091D8018091D9019091DA016B
:100C000042E050E00E94CD020E94CE010E946402A8
:100C10006091D7017091D8018091D9019091DA014A
:100C200041E050E00E94CD020E94CE010E94640289
:100C30008EE20E9464026091D7017091D801809188
:100C4000D9019091DA014FEF5FEF0E94CD020E942F
:100C5000CE010E9464026091D7017091D801809109
:100C6000D9019091DA014EEF5FEF0E94CD020E9410
:100C7000CE010E9464026091D7017091D8018091E9
:100C8000D9019091DA01F3CE0E945E028BE990E0E7
:100C90000E94780260917A0170917B0180917C01C1
:100CA00090917D0143E050E00E94CD020E94CE0170
:100CB0000E94640260917A0170917B0180917C01B5
:100CC00090917D0142E050E00E94CD020E94CE0151
:100CD0000E94640260917A0170917B0180917C0195
:100CE00090917D0141E050E00E94CD020E94CE0132
:100CF0000E9464028EE20E94640260917A01709107
:100D00007B0180917C0190917D014FEF5FEF0E940C
:100D1000CD020E94CE010E94640260917A0170911E
:100D20007B0180917C0190917D014EEF5FEF0E94ED
:100D3000CD020E94CE010E94640260917A017091FE
:100D40007B0180917C0190917D014DEF5FEF0E94CE
:100D5000CD020E94CE010E94640261E080E00E9408
:100D6000530283EA90E00E947802609176017091CC
:100D70007701809178019091790143E050E00E94E1
:100D8000CD020E94CE010E946402609176017091B2
:100D90007701809178019091790142E050E00E94C2
:100DA000CD020E94CE010E94640260917601709192
:100DB0007701809178019091790141E050E00E94A3
:100DC000CD020E94CE010E9464028EE20E94640263
:100DD000609176017091770180917801909179010D
:100DE0004FEF5FEF0E94CD020E94CE010E9464028D
:100DF00060917601709177018091780190917901ED
:100E00004EEF5FEF0E94CD020E94CE010E9464026D
:100E100060917601709177018091780190917901CC
:100E200026CE0E945E028BEA90E00E9478026091DA
:100E3000720170917301809174019091750143E08A
:100E400050E00E94CD020E94CE010E946402609197
:100E5000720170917301809174019091750142E06B
:100E600050E00E94CD020E94CE010E946402609177
:100E7000720170917301809174019091750141E04C
:100E800050E00E94CD020E94CE010E9464028EE2D8
:100E90000E946402609172017091730180917401EB
:100EA000909175014FEF5FEF0E94CD020E94CE013D
:100EB0000E946402609172017091730180917401CB
:100EC000909175014EEF5FEF0E94CD020E94CE011E
:100ED0000E946402609172017091730180917401AB
:100EE000909175014DEF5FEF0E94CD020E94CE01FF
:100EF0000E94640261E080E00E94530283EB90E074
:100F00000E94780241E050E060E070E080E590E40B
:100F10000E94CD020E94CE010E9464028EE20E94D5
:100F200064024FEF5FEF60E070E080E590E40E94C4
:100F3000CD020E94CE010E9464024EEF5FEF60E09E
:100F400070E080E590E40E94CD020E94CE010E94F4
:100F500064028BEB90E00E94780291CD23E333E3AF
:100F600043E35FE3C701B6010E94BD0D18160CF004
:100F7000A9CD81E090E090936A0080936900A2CDB2
:100F800023E333E343E35FE3C701B6010E941A0C96
:100F900087FFBACD81E090E090936800809367006E
:100FA000B3CD26EA3BE944E45BE3C701B6010E9406
:100FB0001A0C87FFD4CB81E090E090936600809379
:100FC0006500CDCB1F920F920FB60F9211242F9375
:100FD0008F939F93EF93FF938BB19CB1E09192011C
:100FE000EF5FEF71209191012E17B1F08871E093BE
:100FF0009201F0E0EB56FE4F908390919001892B87
:1010000080939001FF91EF919F918F912F910F907D
:101010000FBE0F901F90189582E0EFCF1F920F9296
:101020000FB60F9211248F939F93EF93FF9390919C
:101030009401809193019817A1F0E0919301EF5FE3
:10104000EF71E0939301F0E0EB54FE4F80818CB997
:10105000FF91EF919F918F910F900FBE0F901F9076
:1010600018955598F5CF1092940110929301109213
:1010700092011092910197FF02C022E02BB9907863
:1010800090BD89B988E98AB986E880BD08959091B4
:101090009201809191019817B1F0909191019F5F19
:1010A0009F71E92FF0E0EB56FE4F308120919001C7
:1010B0009093910110929001822F90E0982F8827B1
:1010C000830F911D089580E091E00895909194011F
:1010D0009F5F9F71209193012917E1F3E92FF0E0C1
:1010E000EB54FE4F808390939401559A0895CF93CB
:1010F000DF93EC018991811103C0DF91CF910895B5
:101100000E946608F7CFCF93DF93EC01FE01849134
:101110002196811103C0DF91CF9108950E94660846
:10112000F5CF83E390E00E94330878948CE00E942E
:1011300092020E94B100A89A0E945E0284E391E0AC
:101140000E9478022FEF89E698E12150804090407C
:10115000E1F700C0000085E491E00E9477081FBC21
:1011600082E08EBD85E083BF89B7816089BF80E45E
:1011700087B98FE886B985B78F6085BF8BB7806CDC
:101180008BBF0E944708EC0190FDFBCF94FF04C089
:101190008FE091E00E948308D3FF04C088EF90E0C5
:1011A0000E948308D1FF04C08EED90E00E94830866
:1011B000CF7DC63469F410927601109277011092B7
:1011C00078011092790187E591E00E947708D9CFE4
:1011D000C33419F485E491E0F8CFC23591F684ED7B
:1011E00090E00E94830860917A0170917B01809168
:1011F0007C0190917D0143E050E00E94CD020E946D
:10120000CE010E94660860917A0170917B01809105
:101210007C0190917D0142E050E00E94CD020E944D
:10122000CE010E94660860917A0170917B018091E5
:101230007C0190917D0141E050E00E94CD020E942E
:10124000CE010E9466088EE20E94660860917A01D3
:1012500070917B0180917C0190917D014FEF5FEF58
:101260000E94CD020E94CE010E94660860917A0120
:1012700070917B0180917C0190917D014EEF5FEF39
:101280000E94CD020E94CE010E94660860917A0100
:1012900070917B0180917C0190917D014DEF5FEF1A
:1012A0000E94CD020E94CE010E9466088AEC90E066
:1012B0000E94830860917601709177018091780196
:1012C0009091790143E050E00E94CD020E94CE014E
:1012D0000E94660860917601709177018091780193
:1012E0009091790142E050E00E94CD020E94CE012F
:1012F0000E94660860917601709177018091780173
:101300009091790141E050E00E94CD020E94CE010F
:101310000E9466088EE20E946608609176017091D4
:10132000770180917801909179014FEF5FEF0E94F2
:10133000CD020E94CE010E946608609176017091F4
:10134000770180917801909179014EEF5FEF0E94D3
:10135000CD020E94CE010E946608609176017091D4
:10136000770180917801909179014DEF5FEF0E94B4
:10137000CD020E94CE010E9466088EEB90E00E9492
:1013800083086091860170918701072E000C880BFD
:10139000990B0E94CE0C43E050E00E94CD020E94C7
:1013A000CE010E9466086091860170918701072E28
:1013B000000C880B990B0E94CE0C42E050E00E947A
:1013C000CD020E94CE010E94660860918601709154
:1013D0008701072E000C880B990B0E94CE0C41E070
:1013E00050E00E94CD020E94CE010E94660882EB6E
:1013F00090E00E948308609180017091810180914A
:1014000082019091830141E050E00E94CD020E9450
:10141000CE010E9466088EE20E94660860918001FB
:101420007091810180918201909183014FEF5FEF74
:101430000E94CD020E94CE010E9466086091800148
:101440007091810180918201909183014EEF5FEF55
:101450000E94CD020E94CE010E9466086091800128
:101460007091810180918201909183014DEF5FEF36
:101470000E94CD020E94CE010E94660884EA90E09C
:101480000E9483086091D7017091D8018091D901A1
:101490009091DA0142E050E00E94CD020E94CE011C
:1014A0000E9466086091D7017091D8018091D9019E
:1014B0009091DA0141E050E00E94CD020E94CE01FD
:1014C0000E9466088EE20E9466086091D7017091C2
:1014D000D8018091D9019091DA014FEF5FEF0E941E
:1014E000CD020E94CE010E9466086091D7017091E2
:1014F000D8018091D9019091DA014EEF5FEF0E94FF
:10150000CD020E94CE010E9466086091D7017091C1
:10151000D8018091D9019091DA014DEF5FEF0E94DF
:10152000CD020E94CE010E94660883E990E00E94ED
:10153000830860916C0170916D0180916E019091B2
:101540006F0141E050E00E94CD020E94CE010E9456
:1015500066088EE20E94660860916C0170916D01D0
:1015600080916E0190916F014FEF5FEF0E94CD026D
:101570000E94CE010E94660860916C0170916D011D
:1015800080916E0190916F014EEF5FEF0E94CD024E
:101590000E94CE010E94660860916C0170916D01FD
:1015A00080916E0190916F014DEF5FEF0E94CD022F
:1015B0000E94CE010E94660883E890E00E948308A2
:1015C0006091720170917301809174019091750125
:1015D00043E050E00E94CD020E94CE010E946608C6
:1015E0006091720170917301809174019091750105
:1015F00042E050E00E94CD020E94CE010E946608A7
:1016000060917201709173018091740190917501E4
:1016100041E050E00E94CD020E94CE010E94660887
:101620008EE20E9466086091720170917301809150
:101630007401909175014FEF5FEF0E94CD020E94FF
:10164000CE010E94660860917201709173018091D1
:101650007401909175014EEF5FEF0E94CD020E94E0
:10166000CE010E94660860917201709173018091B1
:101670007401909175014DEF5FEF0E94CD020E94C1
:10168000CE010E94660888E790E00E94830841E04E
:1016900050E060E070E080E590E40E94CD020E949E
:1016A000CE010E9466088EE20E9466084FEF5FEF4F
:1016B00060E070E080E590E40E94CD020E94CE01DF
:1016C0000E9466084EEF5FEF60E070E080E590E416
:1016D0000E94CD020E94CE010E9466084DEF5FEF8E
:1016E00060E070E080E590E40E94CD020E94CE01AF
:1016F0000E94660882E790E00E94830842CD97FB33
:10170000072E16F4009407D077FD09D00E94990B9C
:1017100007FC05D03EF4909581959F4F08957095F4
:1017200061957F4F0895EE0FFF1F0590F491E02D16
:101730000994AA1BBB1B51E107C0AA1FBB1FA61718
:10174000B70710F0A61BB70B881F991F5A95A9F76A
:1017500080959095BC01CD0108955058BB27AA27CC
:101760000E94C50B0C946F0D0E94360D38F00E943C
:101770003D0D20F039F49F3F19F426F40C94330DFD
:101780000EF4E095E7FB0C942D0DE92F0E94940DCB
:1017900058F3BA17620773078407950720F079F4A6
:1017A000A6F50C94B60D0EF4E0950B2EBA2FA02DD5
:1017B0000B01B90190010C01CA01A0011124FF27FE
:1017C000591B99F0593F50F4503E68F11A16F040F9
:1017D000A22F232F342F4427585FF3CF46953795F8
:1017E0002795A795F0405395C9F77EF41F16BA0BBD
:1017F000620B730B840BBAF09150A1F0FF0FBB1F6B
:10180000661F771F881FC2F70EC0BA0F621F731FB3
:10181000841F48F4879577956795B795F7959E3F10
:1018200008F0B0CF9395880F08F09927EE0F9795A1
:10183000879508950E94090D08F481E008950E949B
:10184000460DE3950C94800D0E94380C0C946F0D9E
:101850000E943D0D58F00E94360D40F029F45F3F84
:1018600029F00C942D0D51110C94B70D0C94330DDF
:101870000E94940D68F39923B1F3552391F3951BBE
:10188000550BBB27AA2762177307840738F09F5FA1
:101890005F4F220F331F441FAA1FA9F335D00E2E0E
:1018A0003AF0E0E832D091505040E695001CCAF77B
:1018B0002BD0FE2F29D0660F771F881FBB1F26173E
:1018C00037074807AB07B0E809F0BB0B802DBF0115
:1018D000FF2793585F4F3AF09E3F510578F00C94E4
:1018E0002D0D0C94B70D5F3FE4F3983ED4F386952D
:1018F00077956795B795F7959F5FC9F7880F911D05
:101900009695879597F90895E1E0660F771F881FF0
:10191000BB1F621773078407BA0720F0621B730BA3
:10192000840BBA0BEE1F88F7E09508950E949D0C7A
:101930006894B1110C94B70D08950E949C0D88F025
:101940009F5798F0B92F9927B751B0F0E1F0660F83
:10195000771F881F991F1AF0BA95C9F714C0B130C4
:1019600091F00E94B60DB1E008950C94B60D672F6A
:10197000782F8827B85F39F0B93FCCF386957795F3
:101980006795B395D9F73EF49095809570956195DC
:101990007F4F8F4F9F4F0895E89409C097FB3EF407
:1019A00090958095709561957F4F8F4F9F4F9923AC
:1019B000A9F0F92F96E9BB279395F695879577952A
:1019C0006795B795F111F8CFFAF4BB0F11F460FFEA
:1019D0001BC06F5F7F4F8F4F9F4F16C0882311F042
:1019E00096E911C0772321F09EE8872F762F05C056
:1019F000662371F096E8862F70E060E02AF09A95F1
:101A0000660F771F881FDAF7880F9695879597F9E5
:101A10000895990F0008550FAA0BE0E8FEEF16167F
:101A20001706E807F907C0F012161306E407F507D2
:101A300098F0621B730B840B950B39F40A2661F046
:101A4000232B242B252B21F408950A2609F4A140E9
:101A5000A6958FEF811D811D089597F99F6780E8F6
:101A600070E060E008959FEF80EC089500240A94F0
:101A70001616170618060906089500240A94121669
:101A800013061406050608950C94330D0E949C0D50
:101A9000D8F3E894E0E0BB279F57F0F02AED3FE051
:101AA00049EC06C0EE0FBB0F661F771F881F28F09A
:101AB000B23A62077307840728F0B25A620B730BBD
:101AC000840BE3959A9572F7803830F49A95BB0FA2
:101AD000661F771F881FD2F790480C94310E092E8D
:101AE0000394000C11F4882352F0BB0F40F4BF2B79
:101AF00011F460FF04C06F5F7F4F8F4F9F4F0895B9
:101B0000EF93E0FF07C0A2EA2AED3FE049EC5FEB6C
:101B10000E94C50B0E946F0D0F90039401FC90581A
:101B2000E4E5F0E00C943D0E57FD9058440F551F2E
:101B300059F05F3F71F04795880F97FB991F61F04F
:101B40009F3F79F087950895121613061406551FC6
:101B5000F2CF4695F1DF08C0161617061806991F32
:101B6000F1CF86957105610508940895E894BB2727
:101B700066277727CB0197F908950E94090D08F48D
:101B80008FEF08950E94D50D0C946F0D0E94360DB5
:101B900038F00E943D0D20F0952311F00C942D0D8E
:101BA0000C94330D11240C94B70D0E94940D70F316
:101BB000959FC1F3950F50E0551F629FF001729FF2
:101BC000BB27F00DB11D639FAA27F00DB11DAA1F01
:101BD000649F6627B00DA11D661F829F2227B00D4E
:101BE000A11D621F739FB00DA11D621F839FA00DD9
:101BF000611D221F749F3327A00D611D231F849F29
:101C0000600D211D822F762F6A2F11249F5750407F
:101C10009AF0F1F088234AF0EE0FFF1FBB1F661FFA
:101C2000771F881F91505040A9F79E3F510580F0C3
:101C30000C942D0D0C94B70D5F3FE4F3983ED4F354
:101C4000869577956795B795F795E7959F5FC1F767
:101C5000FE2B880F911D9695879597F908959F3FC4
:101C600031F0915020F4879577956795B795880F57
:101C7000911D9695879597F908959F938F937F93DC
:101C80006F93FF93EF939B01AC010E94C20DEF9104
:101C9000FF910E94510E2F913F914F915F910C94B3
:101CA000C20DDF93CF931F930F93FF92EF92DF92BA
:101CB0007B018C01689406C0DA2EEF010E94D50DDD
:101CC000FE01E894A5912591359145915591A6F392
:101CD000EF010E94C50BFE019701A801DA9469F794
:101CE000DF90EF90FF900F911F91CF91DF910895BA
:041CF000F894FFCF96
:101CF40000000000FF0100010001003031323334E4
:101D04003536373839414243442A23566F6C74615F
:101D140067653A200043757272656E743A2000500C
:101D2400463A2000465245513A2000504F574552FA
:101D34003A2000556E6974733A200042494C4C2095
:101D44003A20005461727269663A002F4B7768003A
:101D54000A0D5741524E494E473A204C6F77207036
:101D64006F77657220666163746F72210A0D000AD1
:101D74000D5741524E494E473A204D617820436FEA
:101D84006E6E6563746564206C6F6164206578634E
:101D94006565646564210A0D000A0D5741524E4978
:101DA4004E473A205375627369647920757361678D
:101DB40065206C696D697420657863656564656424
:101DC400210A0D004C4F4144494E472E2E2E2E0A17
:101DD40076312E38000A0D446576696365204F6EAE
:101DE4006C696E650A0D000A0D4D656D6F72792080
:0A1DF400666C75736865640A0D00E3
:00000001FF
